{
  "contractName": "Voting",
  "abi": [
    {
      "inputs": [],
      "stateMutability": "nonpayable",
      "type": "constructor"
    },
    {
      "inputs": [],
      "name": "owner",
      "outputs": [
        {
          "internalType": "address",
          "name": "",
          "type": "address"
        }
      ],
      "stateMutability": "view",
      "type": "function",
      "constant": true
    },
    {
      "inputs": [
        {
          "internalType": "uint256",
          "name": "",
          "type": "uint256"
        }
      ],
      "name": "proposals",
      "outputs": [
        {
          "internalType": "address",
          "name": "owner",
          "type": "address"
        },
        {
          "internalType": "string",
          "name": "message",
          "type": "string"
        },
        {
          "internalType": "uint256",
          "name": "yesVotes",
          "type": "uint256"
        },
        {
          "internalType": "uint256",
          "name": "noVotes",
          "type": "uint256"
        }
      ],
      "stateMutability": "view",
      "type": "function",
      "constant": true
    },
    {
      "inputs": [],
      "name": "proposalsId",
      "outputs": [
        {
          "internalType": "uint256",
          "name": "",
          "type": "uint256"
        }
      ],
      "stateMutability": "view",
      "type": "function",
      "constant": true
    },
    {
      "inputs": [
        {
          "internalType": "uint256",
          "name": "",
          "type": "uint256"
        }
      ],
      "name": "voters",
      "outputs": [
        {
          "internalType": "address",
          "name": "",
          "type": "address"
        }
      ],
      "stateMutability": "view",
      "type": "function",
      "constant": true
    },
    {
      "inputs": [
        {
          "internalType": "address",
          "name": "voter",
          "type": "address"
        }
      ],
      "name": "addVoter",
      "outputs": [],
      "stateMutability": "nonpayable",
      "type": "function"
    },
    {
      "inputs": [
        {
          "internalType": "string",
          "name": "message",
          "type": "string"
        }
      ],
      "name": "makeProposal",
      "outputs": [],
      "stateMutability": "nonpayable",
      "type": "function"
    },
    {
      "inputs": [
        {
          "internalType": "string",
          "name": "a",
          "type": "string"
        },
        {
          "internalType": "string",
          "name": "b",
          "type": "string"
        }
      ],
      "name": "compareStrings",
      "outputs": [
        {
          "internalType": "bool",
          "name": "",
          "type": "bool"
        }
      ],
      "stateMutability": "pure",
      "type": "function",
      "constant": true
    },
    {
      "inputs": [
        {
          "internalType": "uint256",
          "name": "id",
          "type": "uint256"
        },
        {
          "internalType": "string",
          "name": "message",
          "type": "string"
        }
      ],
      "name": "vote",
      "outputs": [],
      "stateMutability": "nonpayable",
      "type": "function"
    }
  ],
  "bytecode": "0x608060405234801561001057600080fd5b50336000806101000a81548173ffffffffffffffffffffffffffffffffffffffff021916908373ffffffffffffffffffffffffffffffffffffffff160217905550611198806100606000396000f3fe608060405234801561001057600080fd5b50600436106100885760003560e01c8063bed34bba1161005b578063bed34bba14610116578063da58c7d914610146578063f2b1a25114610176578063f4ab9adf1461019457610088565b8063013cf08b1461008d57806324108475146100c05780638da5cb5b146100dc578063b72a7074146100fa575b600080fd5b6100a760048036038101906100a291906108af565b6101b0565b6040516100b794939291906109bc565b60405180910390f35b6100da60048036038101906100d59190610b3d565b610288565b005b6100e4610483565b6040516100f19190610b99565b60405180910390f35b610114600480360381019061010f9190610bb4565b6104a7565b005b610130600480360381019061012b9190610bfd565b61054e565b60405161013d9190610c90565b60405180910390f35b610160600480360381019061015b91906108af565b6105a7565b60405161016d9190610b99565b60405180910390f35b61017e6105e6565b60405161018b9190610cab565b60405180910390f35b6101ae60048036038101906101a99190610cf2565b6105ec565b005b60026020528060005260406000206000915090508060000160009054906101000a900473ffffffffffffffffffffffffffffffffffffffff16908060010180546101f990610d4e565b80601f016020809104026020016040519081016040528092919081815260200182805461022590610d4e565b80156102725780601f1061024757610100808354040283529160200191610272565b820191906000526020600020905b81548152906001019060200180831161025557829003601f168201915b5050505050908060020154908060030154905084565b610291336106e0565b80156102a457506102a2823361078e565b155b1561047f576102e8816040518060400160405280600381526020017f796573000000000000000000000000000000000000000000000000000000000081525061054e565b156103955760026000838152602001908152602001600020600201600081548092919061031490610dae565b919050555060026000838152602001908152602001600020600401339080600181540180825580915050600190039060005260206000200160009091909190916101000a81548173ffffffffffffffffffffffffffffffffffffffff021916908373ffffffffffffffffffffffffffffffffffffffff16021790555061047e565b6103d4816040518060400160405280600281526020017f6e6f00000000000000000000000000000000000000000000000000000000000081525061054e565b1561047d5760026000838152602001908152602001600020600301600081548092919061040090610dae565b919050555060026000838152602001908152602001600020600401339080600181540180825580915050600190039060005260206000200160009091909190916101000a81548173ffffffffffffffffffffffffffffffffffffffff021916908373ffffffffffffffffffffffffffffffffffffffff1602179055505b5b5b5050565b60008054906101000a900473ffffffffffffffffffffffffffffffffffffffff1681565b6104b0336106e0565b1561054b573360026000600354815260200190815260200160002060000160006101000a81548173ffffffffffffffffffffffffffffffffffffffff021916908373ffffffffffffffffffffffffffffffffffffffff1602179055508060026000600354815260200190815260200160002060010190816105319190610fa2565b506003600081548092919061054590610dae565b91905055505b50565b60008160405160200161056191906110b0565b604051602081830303815290604052805190602001208360405160200161058891906110b0565b6040516020818303038152906040528051906020012014905092915050565b600181815481106105b757600080fd5b906000526020600020016000915054906101000a900473ffffffffffffffffffffffffffffffffffffffff1681565b60035481565b60008054906101000a900473ffffffffffffffffffffffffffffffffffffffff1673ffffffffffffffffffffffffffffffffffffffff163373ffffffffffffffffffffffffffffffffffffffff161461067a576040517f08c379a000000000000000000000000000000000000000000000000000000000815260040161067190611113565b60405180910390fd5b6001819080600181540180825580915050600190039060005260206000200160009091909190916101000a81548173ffffffffffffffffffffffffffffffffffffffff021916908373ffffffffffffffffffffffffffffffffffffffff16021790555050565b600080600090505b600180549050811015610783576001818154811061070957610708611133565b5b9060005260206000200160009054906101000a900473ffffffffffffffffffffffffffffffffffffffff1673ffffffffffffffffffffffffffffffffffffffff168373ffffffffffffffffffffffffffffffffffffffff1603610770576001915050610789565b808061077b90610dae565b9150506106e8565b50600090505b919050565b600080600090505b6002600085815260200190815260200160002060040180549050811015610859576002600085815260200190815260200160002060040181815481106107df576107de611133565b5b9060005260206000200160009054906101000a900473ffffffffffffffffffffffffffffffffffffffff1673ffffffffffffffffffffffffffffffffffffffff168373ffffffffffffffffffffffffffffffffffffffff160361084657600191505061085f565b808061085190610dae565b915050610796565b50600090505b92915050565b6000604051905090565b600080fd5b600080fd5b6000819050919050565b61088c81610879565b811461089757600080fd5b50565b6000813590506108a981610883565b92915050565b6000602082840312156108c5576108c461086f565b5b60006108d38482850161089a565b91505092915050565b600073ffffffffffffffffffffffffffffffffffffffff82169050919050565b6000610907826108dc565b9050919050565b610917816108fc565b82525050565b600081519050919050565b600082825260208201905092915050565b60005b8381101561095757808201518184015260208101905061093c565b60008484015250505050565b6000601f19601f8301169050919050565b600061097f8261091d565b6109898185610928565b9350610999818560208601610939565b6109a281610963565b840191505092915050565b6109b681610879565b82525050565b60006080820190506109d1600083018761090e565b81810360208301526109e38186610974565b90506109f260408301856109ad565b6109ff60608301846109ad565b95945050505050565b600080fd5b600080fd5b7f4e487b7100000000000000000000000000000000000000000000000000000000600052604160045260246000fd5b610a4a82610963565b810181811067ffffffffffffffff82111715610a6957610a68610a12565b5b80604052505050565b6000610a7c610865565b9050610a888282610a41565b919050565b600067ffffffffffffffff821115610aa857610aa7610a12565b5b610ab182610963565b9050602081019050919050565b82818337600083830152505050565b6000610ae0610adb84610a8d565b610a72565b905082815260208101848484011115610afc57610afb610a0d565b5b610b07848285610abe565b509392505050565b600082601f830112610b2457610b23610a08565b5b8135610b34848260208601610acd565b91505092915050565b60008060408385031215610b5457610b5361086f565b5b6000610b628582860161089a565b925050602083013567ffffffffffffffff811115610b8357610b82610874565b5b610b8f85828601610b0f565b9150509250929050565b6000602082019050610bae600083018461090e565b92915050565b600060208284031215610bca57610bc961086f565b5b600082013567ffffffffffffffff811115610be857610be7610874565b5b610bf484828501610b0f565b91505092915050565b60008060408385031215610c1457610c1361086f565b5b600083013567ffffffffffffffff811115610c3257610c31610874565b5b610c3e85828601610b0f565b925050602083013567ffffffffffffffff811115610c5f57610c5e610874565b5b610c6b85828601610b0f565b9150509250929050565b60008115159050919050565b610c8a81610c75565b82525050565b6000602082019050610ca56000830184610c81565b92915050565b6000602082019050610cc060008301846109ad565b92915050565b610ccf816108fc565b8114610cda57600080fd5b50565b600081359050610cec81610cc6565b92915050565b600060208284031215610d0857610d0761086f565b5b6000610d1684828501610cdd565b91505092915050565b7f4e487b7100000000000000000000000000000000000000000000000000000000600052602260045260246000fd5b60006002820490506001821680610d6657607f821691505b602082108103610d7957610d78610d1f565b5b50919050565b7f4e487b7100000000000000000000000000000000000000000000000000000000600052601160045260246000fd5b6000610db982610879565b91507fffffffffffffffffffffffffffffffffffffffffffffffffffffffffffffffff8203610deb57610dea610d7f565b5b600182019050919050565b60008190508160005260206000209050919050565b60006020601f8301049050919050565b600082821b905092915050565b600060088302610e587fffffffffffffffffffffffffffffffffffffffffffffffffffffffffffffffff82610e1b565b610e628683610e1b565b95508019841693508086168417925050509392505050565b6000819050919050565b6000610e9f610e9a610e9584610879565b610e7a565b610879565b9050919050565b6000819050919050565b610eb983610e84565b610ecd610ec582610ea6565b848454610e28565b825550505050565b600090565b610ee2610ed5565b610eed818484610eb0565b505050565b5b81811015610f1157610f06600082610eda565b600181019050610ef3565b5050565b601f821115610f5657610f2781610df6565b610f3084610e0b565b81016020851015610f3f578190505b610f53610f4b85610e0b565b830182610ef2565b50505b505050565b600082821c905092915050565b6000610f7960001984600802610f5b565b1980831691505092915050565b6000610f928383610f68565b9150826002028217905092915050565b610fab8261091d565b67ffffffffffffffff811115610fc457610fc3610a12565b5b610fce8254610d4e565b610fd9828285610f15565b600060209050601f83116001811461100c5760008415610ffa578287015190505b6110048582610f86565b86555061106c565b601f19841661101a86610df6565b60005b828110156110425784890151825560018201915060208501945060208101905061101d565b8683101561105f578489015161105b601f891682610f68565b8355505b6001600288020188555050505b505050505050565b600081905092915050565b600061108a8261091d565b6110948185611074565b93506110a4818560208601610939565b80840191505092915050565b60006110bc828461107f565b915081905092915050565b7f4e6f74206f776e65720000000000000000000000000000000000000000000000600082015250565b60006110fd600983610928565b9150611108826110c7565b602082019050919050565b6000602082019050818103600083015261112c816110f0565b9050919050565b7f4e487b7100000000000000000000000000000000000000000000000000000000600052603260045260246000fdfea26469706673582212202b3896c893adc7ed9e387040c94767117ef51ef6a2dcf8e971908b18e6ce247c64736f6c63430008130033",
  "immutableReferences": {},
  "source": "// SPDX-License-Identifier: MIT\npragma solidity ^0.8.19;\n\ncontract Voting {\n  address public owner;\n  address[] public voters;\n  struct Proposal{\n    address owner;\n    string message;\n    uint yesVotes;\n    uint noVotes;\n    address[] voters;\n  }\n  mapping (uint => Proposal) public proposals;\n  uint256 public proposalsId;\n\n  constructor() {\n    owner = msg.sender;\n  }\n\n  function addVoter(address voter) public onlyOwner{\n    voters.push(voter);\n  }\n  function checkVoters(address add) internal view returns (bool){\n    for(uint i =0; i<voters.length; i++){\n      if(add==voters[i])\n        return true;\n    }\n    return false;\n  }\n  function checkIfAlreadyVoted(uint256 id, address voter) internal view returns (bool){\n    for(uint i =0; i<proposals[id].voters.length; i++){\n      if(voter==proposals[id].voters[i])\n        return true;\n    }\n    return false;\n  }\n  function makeProposal(string memory message) public {\n    if(checkVoters(msg.sender)){\n      proposals[proposalsId].owner = msg.sender;\n      proposals[proposalsId].message = message;\n      proposalsId++;\n    }\n  }\n  function compareStrings(string memory a, string memory b) public pure returns (bool) {\n    return (keccak256(abi.encodePacked((a))) == keccak256(abi.encodePacked((b))));\n}\n  function vote(uint256 id, string memory message) public{\n    if(checkVoters(msg.sender) && !checkIfAlreadyVoted(id, msg.sender)){\n      if(compareStrings(message, \"yes\")){\n        proposals[id].yesVotes++;\n        proposals[id].voters.push(msg.sender);\n      }\n      else if(compareStrings(message, \"no\")){\n        proposals[id].noVotes++;\n        proposals[id].voters.push(msg.sender);\n      }\n    }\n  }\n  modifier onlyOwner() {\n        require(msg.sender == owner, \"Not owner\");\n        _;\n  }\n}\n",
  "sourcePath": "C:\\Users\\joao\\Projects\\votingDapp\\contracts\\Voting.sol",
  "compiler": {
    "name": "solc",
    "version": "0.8.19+commit.7dd6d404.Emscripten.clang"
  },
  "schemaVersion": "3.4.13",
  "updatedAt": "2023-03-18T21:08:08.239Z",
  "networkType": "ethereum",
  "devdoc": {
    "kind": "dev",
    "methods": {},
    "version": 1
  },
  "userdoc": {
    "kind": "user",
    "methods": {},
    "version": 1
  }
}