{
  "contractName": "Voting",
  "abi": [
    {
      "inputs": [],
      "stateMutability": "nonpayable",
      "type": "constructor"
    },
    {
      "inputs": [],
      "name": "numberOfVoters",
      "outputs": [
        {
          "internalType": "uint256",
          "name": "",
          "type": "uint256"
        }
      ],
      "stateMutability": "view",
      "type": "function",
      "constant": true
    },
    {
      "inputs": [],
      "name": "owner",
      "outputs": [
        {
          "internalType": "address",
          "name": "",
          "type": "address"
        }
      ],
      "stateMutability": "view",
      "type": "function",
      "constant": true
    },
    {
      "inputs": [
        {
          "internalType": "uint256",
          "name": "",
          "type": "uint256"
        }
      ],
      "name": "proposals",
      "outputs": [
        {
          "internalType": "address",
          "name": "owner",
          "type": "address"
        },
        {
          "internalType": "string",
          "name": "message",
          "type": "string"
        },
        {
          "internalType": "uint256",
          "name": "yesVotes",
          "type": "uint256"
        },
        {
          "internalType": "uint256",
          "name": "noVotes",
          "type": "uint256"
        },
        {
          "internalType": "string",
          "name": "status",
          "type": "string"
        }
      ],
      "stateMutability": "view",
      "type": "function",
      "constant": true
    },
    {
      "inputs": [],
      "name": "proposalsId",
      "outputs": [
        {
          "internalType": "uint256",
          "name": "",
          "type": "uint256"
        }
      ],
      "stateMutability": "view",
      "type": "function",
      "constant": true
    },
    {
      "inputs": [
        {
          "internalType": "uint256",
          "name": "",
          "type": "uint256"
        }
      ],
      "name": "voters",
      "outputs": [
        {
          "internalType": "address",
          "name": "",
          "type": "address"
        }
      ],
      "stateMutability": "view",
      "type": "function",
      "constant": true
    },
    {
      "inputs": [
        {
          "internalType": "address",
          "name": "voter",
          "type": "address"
        }
      ],
      "name": "addVoter",
      "outputs": [],
      "stateMutability": "nonpayable",
      "type": "function"
    },
    {
      "inputs": [
        {
          "internalType": "string",
          "name": "message",
          "type": "string"
        }
      ],
      "name": "submitProposal",
      "outputs": [],
      "stateMutability": "nonpayable",
      "type": "function"
    },
    {
      "inputs": [
        {
          "internalType": "string",
          "name": "a",
          "type": "string"
        },
        {
          "internalType": "string",
          "name": "b",
          "type": "string"
        }
      ],
      "name": "compareStrings",
      "outputs": [
        {
          "internalType": "bool",
          "name": "",
          "type": "bool"
        }
      ],
      "stateMutability": "pure",
      "type": "function",
      "constant": true
    },
    {
      "inputs": [
        {
          "internalType": "uint256",
          "name": "id",
          "type": "uint256"
        },
        {
          "internalType": "string",
          "name": "message",
          "type": "string"
        }
      ],
      "name": "vote",
      "outputs": [],
      "stateMutability": "nonpayable",
      "type": "function"
    },
    {
      "inputs": [
        {
          "internalType": "uint256",
          "name": "id",
          "type": "uint256"
        }
      ],
      "name": "closeProposal",
      "outputs": [],
      "stateMutability": "nonpayable",
      "type": "function"
    }
  ],
  "bytecode": "0x608060405234801561001057600080fd5b50336000806101000a81548173ffffffffffffffffffffffffffffffffffffffff021916908373ffffffffffffffffffffffffffffffffffffffff160217905550611573806100606000396000f3fe608060405234801561001057600080fd5b506004361061009e5760003560e01c80639bcc3361116100665780639bcc336114610149578063bed34bba14610167578063da58c7d914610197578063f2b1a251146101c7578063f4ab9adf146101e55761009e565b8063013cf08b146100a35780630386a016146100d757806324108475146100f3578063373d6d5e1461010f5780638da5cb5b1461012b575b600080fd5b6100bd60048036038101906100b89190610c75565b610201565b6040516100ce959493929190610d82565b60405180910390f35b6100f160048036038101906100ec9190610c75565b610367565b005b61010d60048036038101906101089190610f18565b610451565b005b61012960048036038101906101249190610f74565b610731565b005b610133610833565b6040516101409190610fbd565b60405180910390f35b610151610857565b60405161015e9190610fd8565b60405180910390f35b610181600480360381019061017c9190610ff3565b61085d565b60405161018e9190611086565b60405180910390f35b6101b160048036038101906101ac9190610c75565b6108b6565b6040516101be9190610fbd565b60405180910390f35b6101cf6108f5565b6040516101dc9190610fd8565b60405180910390f35b6101ff60048036038101906101fa91906110cd565b6108fb565b005b60036020528060005260406000206000915090508060000160009054906101000a900473ffffffffffffffffffffffffffffffffffffffff169080600101805461024a90611129565b80601f016020809104026020016040519081016040528092919081815260200182805461027690611129565b80156102c35780601f10610298576101008083540402835291602001916102c3565b820191906000526020600020905b8154815290600101906020018083116102a657829003601f168201915b5050505050908060020154908060030154908060050180546102e490611129565b80601f016020809104026020016040519081016040528092919081815260200182805461031090611129565b801561035d5780601f106103325761010080835404028352916020019161035d565b820191906000526020600020905b81548152906001019060200180831161034057829003601f168201915b5050505050905085565b60008054906101000a900473ffffffffffffffffffffffffffffffffffffffff1673ffffffffffffffffffffffffffffffffffffffff163373ffffffffffffffffffffffffffffffffffffffff16146103f5576040517f08c379a00000000000000000000000000000000000000000000000000000000081526004016103ec906111a6565b60405180910390fd5b6040518060400160405280600681526020017f636c6f736564000000000000000000000000000000000000000000000000000081525060036000838152602001908152602001600020600501908161044d9190611372565b5050565b61045a33610aa6565b801561046d575061046b8233610b54565b155b8015610552575061055160036000848152602001908152602001600020600501805461049890611129565b80601f01602080910402602001604051908101604052809291908181526020018280546104c490611129565b80156105115780601f106104e657610100808354040283529160200191610511565b820191906000526020600020905b8154815290600101906020018083116104f457829003601f168201915b50505050506040518060400160405280600481526020017f6f70656e0000000000000000000000000000000000000000000000000000000081525061085d565b5b1561072d57610596816040518060400160405280600381526020017f796573000000000000000000000000000000000000000000000000000000000081525061085d565b15610643576003600083815260200190815260200160002060020160008154809291906105c290611473565b919050555060036000838152602001908152602001600020600401339080600181540180825580915050600190039060005260206000200160009091909190916101000a81548173ffffffffffffffffffffffffffffffffffffffff021916908373ffffffffffffffffffffffffffffffffffffffff16021790555061072c565b610682816040518060400160405280600281526020017f6e6f00000000000000000000000000000000000000000000000000000000000081525061085d565b1561072b576003600083815260200190815260200160002060030160008154809291906106ae90611473565b919050555060036000838152602001908152602001600020600401339080600181540180825580915050600190039060005260206000200160009091909190916101000a81548173ffffffffffffffffffffffffffffffffffffffff021916908373ffffffffffffffffffffffffffffffffffffffff1602179055505b5b5b5050565b61073a33610aa6565b15610830573360036000600454815260200190815260200160002060000160006101000a81548173ffffffffffffffffffffffffffffffffffffffff021916908373ffffffffffffffffffffffffffffffffffffffff1602179055508060036000600454815260200190815260200160002060010190816107bb9190611372565b506040518060400160405280600481526020017f6f70656e0000000000000000000000000000000000000000000000000000000081525060036000600454815260200190815260200160002060050190816108169190611372565b506004600081548092919061082a90611473565b91905055505b50565b60008054906101000a900473ffffffffffffffffffffffffffffffffffffffff1681565b60025481565b60008160405160200161087091906114f7565b604051602081830303815290604052805190602001208360405160200161089791906114f7565b6040516020818303038152906040528051906020012014905092915050565b600181815481106108c657600080fd5b906000526020600020016000915054906101000a900473ffffffffffffffffffffffffffffffffffffffff1681565b60045481565b60008054906101000a900473ffffffffffffffffffffffffffffffffffffffff1673ffffffffffffffffffffffffffffffffffffffff163373ffffffffffffffffffffffffffffffffffffffff1614610989576040517f08c379a0000000000000000000000000000000000000000000000000000000008152600401610980906111a6565b60405180910390fd5b60005b60025481108015610a0757508173ffffffffffffffffffffffffffffffffffffffff16600182815481106109c3576109c261150e565b5b9060005260206000200160009054906101000a900473ffffffffffffffffffffffffffffffffffffffff1673ffffffffffffffffffffffffffffffffffffffff1614155b15610a1d5780610a1690611473565b905061098c565b6002548103610aa2576001829080600181540180825580915050600190039060005260206000200160009091909190916101000a81548173ffffffffffffffffffffffffffffffffffffffff021916908373ffffffffffffffffffffffffffffffffffffffff16021790555060026000815480929190610a9c90611473565b91905055505b5050565b600080600090505b600180549050811015610b495760018181548110610acf57610ace61150e565b5b9060005260206000200160009054906101000a900473ffffffffffffffffffffffffffffffffffffffff1673ffffffffffffffffffffffffffffffffffffffff168373ffffffffffffffffffffffffffffffffffffffff1603610b36576001915050610b4f565b8080610b4190611473565b915050610aae565b50600090505b919050565b600080600090505b6003600085815260200190815260200160002060040180549050811015610c1f57600360008581526020019081526020016000206004018181548110610ba557610ba461150e565b5b9060005260206000200160009054906101000a900473ffffffffffffffffffffffffffffffffffffffff1673ffffffffffffffffffffffffffffffffffffffff168373ffffffffffffffffffffffffffffffffffffffff1603610c0c576001915050610c25565b8080610c1790611473565b915050610b5c565b50600090505b92915050565b6000604051905090565b600080fd5b600080fd5b6000819050919050565b610c5281610c3f565b8114610c5d57600080fd5b50565b600081359050610c6f81610c49565b92915050565b600060208284031215610c8b57610c8a610c35565b5b6000610c9984828501610c60565b91505092915050565b600073ffffffffffffffffffffffffffffffffffffffff82169050919050565b6000610ccd82610ca2565b9050919050565b610cdd81610cc2565b82525050565b600081519050919050565b600082825260208201905092915050565b60005b83811015610d1d578082015181840152602081019050610d02565b60008484015250505050565b6000601f19601f8301169050919050565b6000610d4582610ce3565b610d4f8185610cee565b9350610d5f818560208601610cff565b610d6881610d29565b840191505092915050565b610d7c81610c3f565b82525050565b600060a082019050610d976000830188610cd4565b8181036020830152610da98187610d3a565b9050610db86040830186610d73565b610dc56060830185610d73565b8181036080830152610dd78184610d3a565b90509695505050505050565b600080fd5b600080fd5b7f4e487b7100000000000000000000000000000000000000000000000000000000600052604160045260246000fd5b610e2582610d29565b810181811067ffffffffffffffff82111715610e4457610e43610ded565b5b80604052505050565b6000610e57610c2b565b9050610e638282610e1c565b919050565b600067ffffffffffffffff821115610e8357610e82610ded565b5b610e8c82610d29565b9050602081019050919050565b82818337600083830152505050565b6000610ebb610eb684610e68565b610e4d565b905082815260208101848484011115610ed757610ed6610de8565b5b610ee2848285610e99565b509392505050565b600082601f830112610eff57610efe610de3565b5b8135610f0f848260208601610ea8565b91505092915050565b60008060408385031215610f2f57610f2e610c35565b5b6000610f3d85828601610c60565b925050602083013567ffffffffffffffff811115610f5e57610f5d610c3a565b5b610f6a85828601610eea565b9150509250929050565b600060208284031215610f8a57610f89610c35565b5b600082013567ffffffffffffffff811115610fa857610fa7610c3a565b5b610fb484828501610eea565b91505092915050565b6000602082019050610fd26000830184610cd4565b92915050565b6000602082019050610fed6000830184610d73565b92915050565b6000806040838503121561100a57611009610c35565b5b600083013567ffffffffffffffff81111561102857611027610c3a565b5b61103485828601610eea565b925050602083013567ffffffffffffffff81111561105557611054610c3a565b5b61106185828601610eea565b9150509250929050565b60008115159050919050565b6110808161106b565b82525050565b600060208201905061109b6000830184611077565b92915050565b6110aa81610cc2565b81146110b557600080fd5b50565b6000813590506110c7816110a1565b92915050565b6000602082840312156110e3576110e2610c35565b5b60006110f1848285016110b8565b91505092915050565b7f4e487b7100000000000000000000000000000000000000000000000000000000600052602260045260246000fd5b6000600282049050600182168061114157607f821691505b602082108103611154576111536110fa565b5b50919050565b7f4e6f74206f776e65720000000000000000000000000000000000000000000000600082015250565b6000611190600983610cee565b915061119b8261115a565b602082019050919050565b600060208201905081810360008301526111bf81611183565b9050919050565b60008190508160005260206000209050919050565b60006020601f8301049050919050565b600082821b905092915050565b6000600883026112287fffffffffffffffffffffffffffffffffffffffffffffffffffffffffffffffff826111eb565b61123286836111eb565b95508019841693508086168417925050509392505050565b6000819050919050565b600061126f61126a61126584610c3f565b61124a565b610c3f565b9050919050565b6000819050919050565b61128983611254565b61129d61129582611276565b8484546111f8565b825550505050565b600090565b6112b26112a5565b6112bd818484611280565b505050565b5b818110156112e1576112d66000826112aa565b6001810190506112c3565b5050565b601f821115611326576112f7816111c6565b611300846111db565b8101602085101561130f578190505b61132361131b856111db565b8301826112c2565b50505b505050565b600082821c905092915050565b60006113496000198460080261132b565b1980831691505092915050565b60006113628383611338565b9150826002028217905092915050565b61137b82610ce3565b67ffffffffffffffff81111561139457611393610ded565b5b61139e8254611129565b6113a98282856112e5565b600060209050601f8311600181146113dc57600084156113ca578287015190505b6113d48582611356565b86555061143c565b601f1984166113ea866111c6565b60005b82811015611412578489015182556001820191506020850194506020810190506113ed565b8683101561142f578489015161142b601f891682611338565b8355505b6001600288020188555050505b505050505050565b7f4e487b7100000000000000000000000000000000000000000000000000000000600052601160045260246000fd5b600061147e82610c3f565b91507fffffffffffffffffffffffffffffffffffffffffffffffffffffffffffffffff82036114b0576114af611444565b5b600182019050919050565b600081905092915050565b60006114d182610ce3565b6114db81856114bb565b93506114eb818560208601610cff565b80840191505092915050565b600061150382846114c6565b915081905092915050565b7f4e487b7100000000000000000000000000000000000000000000000000000000600052603260045260246000fdfea2646970667358221220193987e3797a435e19c82476312870d9e956062ae852b912cb516fd7dede005f64736f6c63430008130033",
  "immutableReferences": {},
  "source": "// SPDX-License-Identifier: MIT\r\npragma solidity ^0.8.19;\r\n\r\ncontract Voting {\r\n  address public owner;\r\n  address[] public voters;\r\n  uint public numberOfVoters;\r\n  struct Proposal{\r\n    address owner;\r\n    string message;\r\n    uint yesVotes;\r\n    uint noVotes;\r\n    address[] voters;\r\n    string status;\r\n  }\r\n  mapping (uint => Proposal) public proposals;\r\n  uint256 public proposalsId;\r\n\r\n  constructor() {\r\n    owner = msg.sender;\r\n  }\r\n\r\n  function addVoter(address voter) public onlyOwner{\r\n    uint i;\r\n    for(i=0; i<numberOfVoters && voters[i]!=voter; ++i){}\r\n    if(i==numberOfVoters){\r\n        voters.push(voter);\r\n        numberOfVoters++;\r\n    }\r\n  }\r\n\r\n  function checkVoters(address add) internal view returns (bool){\r\n    for(uint i =0; i<voters.length; i++){\r\n      if(add==voters[i])\r\n        return true;\r\n    }\r\n    return false;\r\n  }\r\n\r\n  function checkIfAlreadyVoted(uint256 id, address voter) internal view returns (bool){\r\n    for(uint i =0; i<proposals[id].voters.length; i++){\r\n      if(voter==proposals[id].voters[i])\r\n        return true;\r\n    }\r\n    return false;\r\n  }\r\n\r\n  function submitProposal(string memory message) public {\r\n    if(checkVoters(msg.sender)){\r\n      proposals[proposalsId].owner = msg.sender;\r\n      proposals[proposalsId].message = message;\r\n      proposals[proposalsId].status = 'open';\r\n      proposalsId++;\r\n    }\r\n  }\r\n\r\n  function compareStrings(string memory a, string memory b) public pure returns (bool) {\r\n    return (keccak256(abi.encodePacked((a))) == keccak256(abi.encodePacked((b))));\r\n}\r\n\r\n  function vote(uint256 id, string memory message) public{\r\n    if(checkVoters(msg.sender) && !checkIfAlreadyVoted(id, msg.sender) && compareStrings(proposals[id].status, \"open\")){\r\n      if(compareStrings(message, \"yes\")){\r\n        proposals[id].yesVotes++;\r\n        proposals[id].voters.push(msg.sender);\r\n      }\r\n      else if(compareStrings(message, \"no\")){\r\n        proposals[id].noVotes++;\r\n        proposals[id].voters.push(msg.sender);\r\n      }\r\n    }\r\n  }\r\n\r\n  function closeProposal(uint256 id) public onlyOwner{\r\n    proposals[id].status = 'closed';\r\n  }\r\n\r\n  modifier onlyOwner() {\r\n        require(msg.sender == owner, \"Not owner\");\r\n        _;\r\n  }\r\n}\r\n",
  "sourcePath": "C:\\Users\\Black Machine\\Projects\\votingDapp\\contracts\\Voting.sol",
  "compiler": {
    "name": "solc",
    "version": "0.8.19+commit.7dd6d404.Emscripten.clang"
  },
  "schemaVersion": "3.4.13",
  "updatedAt": "2023-03-20T03:20:46.711Z",
  "networkType": "ethereum",
  "devdoc": {
    "kind": "dev",
    "methods": {},
    "version": 1
  },
  "userdoc": {
    "kind": "user",
    "methods": {},
    "version": 1
  }
}