{
  "contractName": "Voting",
  "abi": [
    {
      "inputs": [],
      "stateMutability": "nonpayable",
      "type": "constructor"
    },
    {
      "inputs": [],
      "name": "owner",
      "outputs": [
        {
          "internalType": "address",
          "name": "",
          "type": "address"
        }
      ],
      "stateMutability": "view",
      "type": "function",
      "constant": true
    },
    {
      "inputs": [
        {
          "internalType": "uint256",
          "name": "",
          "type": "uint256"
        }
      ],
      "name": "proposals",
      "outputs": [
        {
          "internalType": "address",
          "name": "owner",
          "type": "address"
        },
        {
          "internalType": "string",
          "name": "message",
          "type": "string"
        },
        {
          "internalType": "uint256",
          "name": "yesVotes",
          "type": "uint256"
        },
        {
          "internalType": "uint256",
          "name": "noVotes",
          "type": "uint256"
        },
        {
          "internalType": "string",
          "name": "status",
          "type": "string"
        }
      ],
      "stateMutability": "view",
      "type": "function",
      "constant": true
    },
    {
      "inputs": [],
      "name": "proposalsId",
      "outputs": [
        {
          "internalType": "uint256",
          "name": "",
          "type": "uint256"
        }
      ],
      "stateMutability": "view",
      "type": "function",
      "constant": true
    },
    {
      "inputs": [
        {
          "internalType": "uint256",
          "name": "",
          "type": "uint256"
        }
      ],
      "name": "voters",
      "outputs": [
        {
          "internalType": "address",
          "name": "",
          "type": "address"
        }
      ],
      "stateMutability": "view",
      "type": "function",
      "constant": true
    },
    {
      "inputs": [
        {
          "internalType": "address",
          "name": "voter",
          "type": "address"
        }
      ],
      "name": "addVoter",
      "outputs": [],
      "stateMutability": "nonpayable",
      "type": "function"
    },
    {
      "inputs": [
        {
          "internalType": "string",
          "name": "message",
          "type": "string"
        }
      ],
      "name": "submitProposal",
      "outputs": [],
      "stateMutability": "nonpayable",
      "type": "function"
    },
    {
      "inputs": [
        {
          "internalType": "string",
          "name": "a",
          "type": "string"
        },
        {
          "internalType": "string",
          "name": "b",
          "type": "string"
        }
      ],
      "name": "compareStrings",
      "outputs": [
        {
          "internalType": "bool",
          "name": "",
          "type": "bool"
        }
      ],
      "stateMutability": "pure",
      "type": "function",
      "constant": true
    },
    {
      "inputs": [
        {
          "internalType": "uint256",
          "name": "id",
          "type": "uint256"
        },
        {
          "internalType": "string",
          "name": "message",
          "type": "string"
        }
      ],
      "name": "vote",
      "outputs": [],
      "stateMutability": "nonpayable",
      "type": "function"
    },
    {
      "inputs": [
        {
          "internalType": "uint256",
          "name": "id",
          "type": "uint256"
        }
      ],
      "name": "closeProposal",
      "outputs": [],
      "stateMutability": "nonpayable",
      "type": "function"
    }
  ],
  "bytecode": "0x608060405234801561001057600080fd5b50336000806101000a81548173ffffffffffffffffffffffffffffffffffffffff021916908373ffffffffffffffffffffffffffffffffffffffff16021790555061148d806100606000396000f3fe608060405234801561001057600080fd5b50600436106100935760003560e01c80638da5cb5b116100665780638da5cb5b14610120578063bed34bba1461013e578063da58c7d91461016e578063f2b1a2511461019e578063f4ab9adf146101bc57610093565b8063013cf08b146100985780630386a016146100cc57806324108475146100e8578063373d6d5e14610104575b600080fd5b6100b260048036038101906100ad9190610b8f565b6101d8565b6040516100c3959493929190610c9c565b60405180910390f35b6100e660048036038101906100e19190610b8f565b61033e565b005b61010260048036038101906100fd9190610e32565b610428565b005b61011e60048036038101906101199190610e8e565b610708565b005b61012861080a565b6040516101359190610ed7565b60405180910390f35b61015860048036038101906101539190610ef2565b61082e565b6040516101659190610f85565b60405180910390f35b61018860048036038101906101839190610b8f565b610887565b6040516101959190610ed7565b60405180910390f35b6101a66108c6565b6040516101b39190610fa0565b60405180910390f35b6101d660048036038101906101d19190610fe7565b6108cc565b005b60026020528060005260406000206000915090508060000160009054906101000a900473ffffffffffffffffffffffffffffffffffffffff169080600101805461022190611043565b80601f016020809104026020016040519081016040528092919081815260200182805461024d90611043565b801561029a5780601f1061026f5761010080835404028352916020019161029a565b820191906000526020600020905b81548152906001019060200180831161027d57829003601f168201915b5050505050908060020154908060030154908060050180546102bb90611043565b80601f01602080910402602001604051908101604052809291908181526020018280546102e790611043565b80156103345780601f1061030957610100808354040283529160200191610334565b820191906000526020600020905b81548152906001019060200180831161031757829003601f168201915b5050505050905085565b60008054906101000a900473ffffffffffffffffffffffffffffffffffffffff1673ffffffffffffffffffffffffffffffffffffffff163373ffffffffffffffffffffffffffffffffffffffff16146103cc576040517f08c379a00000000000000000000000000000000000000000000000000000000081526004016103c3906110c0565b60405180910390fd5b6040518060400160405280600681526020017f636c6f7365640000000000000000000000000000000000000000000000000000815250600260008381526020019081526020016000206005019081610424919061128c565b5050565b610431336109c0565b801561044457506104428233610a6e565b155b8015610529575061052860026000848152602001908152602001600020600501805461046f90611043565b80601f016020809104026020016040519081016040528092919081815260200182805461049b90611043565b80156104e85780601f106104bd576101008083540402835291602001916104e8565b820191906000526020600020905b8154815290600101906020018083116104cb57829003601f168201915b50505050506040518060400160405280600481526020017f6f70656e0000000000000000000000000000000000000000000000000000000081525061082e565b5b156107045761056d816040518060400160405280600381526020017f796573000000000000000000000000000000000000000000000000000000000081525061082e565b1561061a576002600083815260200190815260200160002060020160008154809291906105999061138d565b919050555060026000838152602001908152602001600020600401339080600181540180825580915050600190039060005260206000200160009091909190916101000a81548173ffffffffffffffffffffffffffffffffffffffff021916908373ffffffffffffffffffffffffffffffffffffffff160217905550610703565b610659816040518060400160405280600281526020017f6e6f00000000000000000000000000000000000000000000000000000000000081525061082e565b15610702576002600083815260200190815260200160002060030160008154809291906106859061138d565b919050555060026000838152602001908152602001600020600401339080600181540180825580915050600190039060005260206000200160009091909190916101000a81548173ffffffffffffffffffffffffffffffffffffffff021916908373ffffffffffffffffffffffffffffffffffffffff1602179055505b5b5b5050565b610711336109c0565b15610807573360026000600354815260200190815260200160002060000160006101000a81548173ffffffffffffffffffffffffffffffffffffffff021916908373ffffffffffffffffffffffffffffffffffffffff160217905550806002600060035481526020019081526020016000206001019081610792919061128c565b506040518060400160405280600481526020017f6f70656e0000000000000000000000000000000000000000000000000000000081525060026000600354815260200190815260200160002060050190816107ed919061128c565b50600360008154809291906108019061138d565b91905055505b50565b60008054906101000a900473ffffffffffffffffffffffffffffffffffffffff1681565b6000816040516020016108419190611411565b60405160208183030381529060405280519060200120836040516020016108689190611411565b6040516020818303038152906040528051906020012014905092915050565b6001818154811061089757600080fd5b906000526020600020016000915054906101000a900473ffffffffffffffffffffffffffffffffffffffff1681565b60035481565b60008054906101000a900473ffffffffffffffffffffffffffffffffffffffff1673ffffffffffffffffffffffffffffffffffffffff163373ffffffffffffffffffffffffffffffffffffffff161461095a576040517f08c379a0000000000000000000000000000000000000000000000000000000008152600401610951906110c0565b60405180910390fd5b6001819080600181540180825580915050600190039060005260206000200160009091909190916101000a81548173ffffffffffffffffffffffffffffffffffffffff021916908373ffffffffffffffffffffffffffffffffffffffff16021790555050565b600080600090505b600180549050811015610a6357600181815481106109e9576109e8611428565b5b9060005260206000200160009054906101000a900473ffffffffffffffffffffffffffffffffffffffff1673ffffffffffffffffffffffffffffffffffffffff168373ffffffffffffffffffffffffffffffffffffffff1603610a50576001915050610a69565b8080610a5b9061138d565b9150506109c8565b50600090505b919050565b600080600090505b6002600085815260200190815260200160002060040180549050811015610b3957600260008581526020019081526020016000206004018181548110610abf57610abe611428565b5b9060005260206000200160009054906101000a900473ffffffffffffffffffffffffffffffffffffffff1673ffffffffffffffffffffffffffffffffffffffff168373ffffffffffffffffffffffffffffffffffffffff1603610b26576001915050610b3f565b8080610b319061138d565b915050610a76565b50600090505b92915050565b6000604051905090565b600080fd5b600080fd5b6000819050919050565b610b6c81610b59565b8114610b7757600080fd5b50565b600081359050610b8981610b63565b92915050565b600060208284031215610ba557610ba4610b4f565b5b6000610bb384828501610b7a565b91505092915050565b600073ffffffffffffffffffffffffffffffffffffffff82169050919050565b6000610be782610bbc565b9050919050565b610bf781610bdc565b82525050565b600081519050919050565b600082825260208201905092915050565b60005b83811015610c37578082015181840152602081019050610c1c565b60008484015250505050565b6000601f19601f8301169050919050565b6000610c5f82610bfd565b610c698185610c08565b9350610c79818560208601610c19565b610c8281610c43565b840191505092915050565b610c9681610b59565b82525050565b600060a082019050610cb16000830188610bee565b8181036020830152610cc38187610c54565b9050610cd26040830186610c8d565b610cdf6060830185610c8d565b8181036080830152610cf18184610c54565b90509695505050505050565b600080fd5b600080fd5b7f4e487b7100000000000000000000000000000000000000000000000000000000600052604160045260246000fd5b610d3f82610c43565b810181811067ffffffffffffffff82111715610d5e57610d5d610d07565b5b80604052505050565b6000610d71610b45565b9050610d7d8282610d36565b919050565b600067ffffffffffffffff821115610d9d57610d9c610d07565b5b610da682610c43565b9050602081019050919050565b82818337600083830152505050565b6000610dd5610dd084610d82565b610d67565b905082815260208101848484011115610df157610df0610d02565b5b610dfc848285610db3565b509392505050565b600082601f830112610e1957610e18610cfd565b5b8135610e29848260208601610dc2565b91505092915050565b60008060408385031215610e4957610e48610b4f565b5b6000610e5785828601610b7a565b925050602083013567ffffffffffffffff811115610e7857610e77610b54565b5b610e8485828601610e04565b9150509250929050565b600060208284031215610ea457610ea3610b4f565b5b600082013567ffffffffffffffff811115610ec257610ec1610b54565b5b610ece84828501610e04565b91505092915050565b6000602082019050610eec6000830184610bee565b92915050565b60008060408385031215610f0957610f08610b4f565b5b600083013567ffffffffffffffff811115610f2757610f26610b54565b5b610f3385828601610e04565b925050602083013567ffffffffffffffff811115610f5457610f53610b54565b5b610f6085828601610e04565b9150509250929050565b60008115159050919050565b610f7f81610f6a565b82525050565b6000602082019050610f9a6000830184610f76565b92915050565b6000602082019050610fb56000830184610c8d565b92915050565b610fc481610bdc565b8114610fcf57600080fd5b50565b600081359050610fe181610fbb565b92915050565b600060208284031215610ffd57610ffc610b4f565b5b600061100b84828501610fd2565b91505092915050565b7f4e487b7100000000000000000000000000000000000000000000000000000000600052602260045260246000fd5b6000600282049050600182168061105b57607f821691505b60208210810361106e5761106d611014565b5b50919050565b7f4e6f74206f776e65720000000000000000000000000000000000000000000000600082015250565b60006110aa600983610c08565b91506110b582611074565b602082019050919050565b600060208201905081810360008301526110d98161109d565b9050919050565b60008190508160005260206000209050919050565b60006020601f8301049050919050565b600082821b905092915050565b6000600883026111427fffffffffffffffffffffffffffffffffffffffffffffffffffffffffffffffff82611105565b61114c8683611105565b95508019841693508086168417925050509392505050565b6000819050919050565b600061118961118461117f84610b59565b611164565b610b59565b9050919050565b6000819050919050565b6111a38361116e565b6111b76111af82611190565b848454611112565b825550505050565b600090565b6111cc6111bf565b6111d781848461119a565b505050565b5b818110156111fb576111f06000826111c4565b6001810190506111dd565b5050565b601f82111561124057611211816110e0565b61121a846110f5565b81016020851015611229578190505b61123d611235856110f5565b8301826111dc565b50505b505050565b600082821c905092915050565b600061126360001984600802611245565b1980831691505092915050565b600061127c8383611252565b9150826002028217905092915050565b61129582610bfd565b67ffffffffffffffff8111156112ae576112ad610d07565b5b6112b88254611043565b6112c38282856111ff565b600060209050601f8311600181146112f657600084156112e4578287015190505b6112ee8582611270565b865550611356565b601f198416611304866110e0565b60005b8281101561132c57848901518255600182019150602085019450602081019050611307565b868310156113495784890151611345601f891682611252565b8355505b6001600288020188555050505b505050505050565b7f4e487b7100000000000000000000000000000000000000000000000000000000600052601160045260246000fd5b600061139882610b59565b91507fffffffffffffffffffffffffffffffffffffffffffffffffffffffffffffffff82036113ca576113c961135e565b5b600182019050919050565b600081905092915050565b60006113eb82610bfd565b6113f581856113d5565b9350611405818560208601610c19565b80840191505092915050565b600061141d82846113e0565b915081905092915050565b7f4e487b7100000000000000000000000000000000000000000000000000000000600052603260045260246000fdfea264697066735822122094708123093ae89112486b19dfee63a334634b98713f183a0f8d14ef5a0ba1d964736f6c63430008130033",
  "immutableReferences": {},
  "source": "// SPDX-License-Identifier: MIT\r\npragma solidity ^0.8.19;\r\n\r\ncontract Voting {\r\n  address public owner;\r\n  address[] public voters;\r\n  struct Proposal{\r\n    address owner;\r\n    string message;\r\n    uint yesVotes;\r\n    uint noVotes;\r\n    address[] voters;\r\n    string status;\r\n  }\r\n  mapping (uint => Proposal) public proposals;\r\n  uint256 public proposalsId;\r\n\r\n  constructor() {\r\n    owner = msg.sender;\r\n  }\r\n\r\n  function addVoter(address voter) public onlyOwner{\r\n    voters.push(voter);\r\n  }\r\n\r\n  function checkVoters(address add) internal view returns (bool){\r\n    for(uint i =0; i<voters.length; i++){\r\n      if(add==voters[i])\r\n        return true;\r\n    }\r\n    return false;\r\n  }\r\n\r\n  function checkIfAlreadyVoted(uint256 id, address voter) internal view returns (bool){\r\n    for(uint i =0; i<proposals[id].voters.length; i++){\r\n      if(voter==proposals[id].voters[i])\r\n        return true;\r\n    }\r\n    return false;\r\n  }\r\n\r\n  function submitProposal(string memory message) public {\r\n    if(checkVoters(msg.sender)){\r\n      proposals[proposalsId].owner = msg.sender;\r\n      proposals[proposalsId].message = message;\r\n      proposals[proposalsId].status = 'open';\r\n      proposalsId++;\r\n    }\r\n  }\r\n\r\n  function compareStrings(string memory a, string memory b) public pure returns (bool) {\r\n    return (keccak256(abi.encodePacked((a))) == keccak256(abi.encodePacked((b))));\r\n}\r\n\r\n  function vote(uint256 id, string memory message) public{\r\n    if(checkVoters(msg.sender) && !checkIfAlreadyVoted(id, msg.sender) && compareStrings(proposals[id].status, \"open\")){\r\n      if(compareStrings(message, \"yes\")){\r\n        proposals[id].yesVotes++;\r\n        proposals[id].voters.push(msg.sender);\r\n      }\r\n      else if(compareStrings(message, \"no\")){\r\n        proposals[id].noVotes++;\r\n        proposals[id].voters.push(msg.sender);\r\n      }\r\n    }\r\n  }\r\n\r\n  function closeProposal(uint256 id) public onlyOwner{\r\n    proposals[id].status = 'closed';\r\n  }\r\n\r\n  modifier onlyOwner() {\r\n        require(msg.sender == owner, \"Not owner\");\r\n        _;\r\n  }\r\n}\r\n",
  "sourcePath": "C:\\Users\\Black Machine\\Projects\\votingDapp\\contracts\\Voting.sol",
  "compiler": {
    "name": "solc",
    "version": "0.8.19+commit.7dd6d404.Emscripten.clang"
  },
  "schemaVersion": "3.4.13",
  "updatedAt": "2023-03-19T03:31:59.545Z",
  "networkType": "ethereum",
  "devdoc": {
    "kind": "dev",
    "methods": {},
    "version": 1
  },
  "userdoc": {
    "kind": "user",
    "methods": {},
    "version": 1
  }
}