{
  "contractName": "Voting",
  "abi": [
    {
      "inputs": [],
      "stateMutability": "nonpayable",
      "type": "constructor"
    },
    {
      "inputs": [],
      "name": "numberOfVoters",
      "outputs": [
        {
          "internalType": "uint256",
          "name": "",
          "type": "uint256"
        }
      ],
      "stateMutability": "view",
      "type": "function",
      "constant": true
    },
    {
      "inputs": [],
      "name": "owner",
      "outputs": [
        {
          "internalType": "address",
          "name": "",
          "type": "address"
        }
      ],
      "stateMutability": "view",
      "type": "function",
      "constant": true
    },
    {
      "inputs": [
        {
          "internalType": "uint256",
          "name": "",
          "type": "uint256"
        }
      ],
      "name": "proposals",
      "outputs": [
        {
          "internalType": "address",
          "name": "owner",
          "type": "address"
        },
        {
          "internalType": "string",
          "name": "message",
          "type": "string"
        },
        {
          "internalType": "uint256",
          "name": "yesVotes",
          "type": "uint256"
        },
        {
          "internalType": "uint256",
          "name": "noVotes",
          "type": "uint256"
        },
        {
          "internalType": "string",
          "name": "status",
          "type": "string"
        },
        {
          "internalType": "uint256",
          "name": "proposalId",
          "type": "uint256"
        }
      ],
      "stateMutability": "view",
      "type": "function",
      "constant": true
    },
    {
      "inputs": [],
      "name": "proposalsId",
      "outputs": [
        {
          "internalType": "uint256",
          "name": "",
          "type": "uint256"
        }
      ],
      "stateMutability": "view",
      "type": "function",
      "constant": true
    },
    {
      "inputs": [
        {
          "internalType": "uint256",
          "name": "",
          "type": "uint256"
        }
      ],
      "name": "voters",
      "outputs": [
        {
          "internalType": "address",
          "name": "",
          "type": "address"
        }
      ],
      "stateMutability": "view",
      "type": "function",
      "constant": true
    },
    {
      "inputs": [
        {
          "internalType": "address",
          "name": "voter",
          "type": "address"
        }
      ],
      "name": "addVoter",
      "outputs": [],
      "stateMutability": "nonpayable",
      "type": "function"
    },
    {
      "inputs": [
        {
          "internalType": "string",
          "name": "message",
          "type": "string"
        }
      ],
      "name": "submitProposal",
      "outputs": [],
      "stateMutability": "nonpayable",
      "type": "function"
    },
    {
      "inputs": [
        {
          "internalType": "string",
          "name": "a",
          "type": "string"
        },
        {
          "internalType": "string",
          "name": "b",
          "type": "string"
        }
      ],
      "name": "compareStrings",
      "outputs": [
        {
          "internalType": "bool",
          "name": "",
          "type": "bool"
        }
      ],
      "stateMutability": "pure",
      "type": "function",
      "constant": true
    },
    {
      "inputs": [
        {
          "internalType": "uint256",
          "name": "id",
          "type": "uint256"
        },
        {
          "internalType": "string",
          "name": "message",
          "type": "string"
        }
      ],
      "name": "vote",
      "outputs": [],
      "stateMutability": "nonpayable",
      "type": "function"
    },
    {
      "inputs": [
        {
          "internalType": "uint256",
          "name": "id",
          "type": "uint256"
        }
      ],
      "name": "closeProposal",
      "outputs": [],
      "stateMutability": "nonpayable",
      "type": "function"
    }
  ],
  "bytecode": "0x608060405234801561001057600080fd5b50336000806101000a81548173ffffffffffffffffffffffffffffffffffffffff021916908373ffffffffffffffffffffffffffffffffffffffff16021790555061159b806100606000396000f3fe608060405234801561001057600080fd5b506004361061009e5760003560e01c80639bcc3361116100665780639bcc33611461014a578063bed34bba14610168578063da58c7d914610198578063f2b1a251146101c8578063f4ab9adf146101e65761009e565b8063013cf08b146100a35780630386a016146100d857806324108475146100f4578063373d6d5e146101105780638da5cb5b1461012c575b600080fd5b6100bd60048036038101906100b89190610c8f565b610202565b6040516100cf96959493929190610d9c565b60405180910390f35b6100f260048036038101906100ed9190610c8f565b61036e565b005b61010e60048036038101906101099190610f40565b610458565b005b61012a60048036038101906101259190610f9c565b610732565b005b610134610853565b6040516101419190610fe5565b60405180910390f35b610152610877565b60405161015f9190611000565b60405180910390f35b610182600480360381019061017d919061101b565b61087d565b60405161018f91906110ae565b60405180910390f35b6101b260048036038101906101ad9190610c8f565b6108d6565b6040516101bf9190610fe5565b60405180910390f35b6101d0610915565b6040516101dd9190611000565b60405180910390f35b61020060048036038101906101fb91906110f5565b61091b565b005b60036020528060005260406000206000915090508060000160009054906101000a900473ffffffffffffffffffffffffffffffffffffffff169080600101805461024b90611151565b80601f016020809104026020016040519081016040528092919081815260200182805461027790611151565b80156102c45780601f10610299576101008083540402835291602001916102c4565b820191906000526020600020905b8154815290600101906020018083116102a757829003601f168201915b5050505050908060020154908060030154908060040180546102e590611151565b80601f016020809104026020016040519081016040528092919081815260200182805461031190611151565b801561035e5780601f106103335761010080835404028352916020019161035e565b820191906000526020600020905b81548152906001019060200180831161034157829003601f168201915b5050505050908060050154905086565b60008054906101000a900473ffffffffffffffffffffffffffffffffffffffff1673ffffffffffffffffffffffffffffffffffffffff163373ffffffffffffffffffffffffffffffffffffffff16146103fc576040517f08c379a00000000000000000000000000000000000000000000000000000000081526004016103f3906111ce565b60405180910390fd5b6040518060400160405280600681526020017f636c6f7365640000000000000000000000000000000000000000000000000000815250600360008381526020019081526020016000206004019081610454919061139a565b5050565b61046133610ac6565b801561047457506104728233610b74565b155b8015610559575061055860036000848152602001908152602001600020600401805461049f90611151565b80601f01602080910402602001604051908101604052809291908181526020018280546104cb90611151565b80156105185780601f106104ed57610100808354040283529160200191610518565b820191906000526020600020905b8154815290600101906020018083116104fb57829003601f168201915b50505050506040518060400160405280600481526020017f6f70656e0000000000000000000000000000000000000000000000000000000081525061087d565b5b1561072e5761059d816040518060400160405280600381526020017f796573000000000000000000000000000000000000000000000000000000000081525061087d565b15610647576003600083815260200190815260200160002060020160008154809291906105c99061149b565b919050555060046000838152602001908152602001600020339080600181540180825580915050600190039060005260206000200160009091909190916101000a81548173ffffffffffffffffffffffffffffffffffffffff021916908373ffffffffffffffffffffffffffffffffffffffff16021790555061072d565b610686816040518060400160405280600281526020017f6e6f00000000000000000000000000000000000000000000000000000000000081525061087d565b1561072c576003600083815260200190815260200160002060030160008154809291906106b29061149b565b919050555060046000838152602001908152602001600020339080600181540180825580915050600190039060005260206000200160009091909190916101000a81548173ffffffffffffffffffffffffffffffffffffffff021916908373ffffffffffffffffffffffffffffffffffffffff1602179055505b5b5b5050565b61073b33610ac6565b15610850573360036000600554815260200190815260200160002060000160006101000a81548173ffffffffffffffffffffffffffffffffffffffff021916908373ffffffffffffffffffffffffffffffffffffffff1602179055508060036000600554815260200190815260200160002060010190816107bc919061139a565b506040518060400160405280600481526020017f6f70656e000000000000000000000000000000000000000000000000000000008152506003600060055481526020019081526020016000206004019081610817919061139a565b506005600081548092919061082b9061149b565b9190505550600554600360006005548152602001908152602001600020600501819055505b50565b60008054906101000a900473ffffffffffffffffffffffffffffffffffffffff1681565b60025481565b600081604051602001610890919061151f565b60405160208183030381529060405280519060200120836040516020016108b7919061151f565b6040516020818303038152906040528051906020012014905092915050565b600181815481106108e657600080fd5b906000526020600020016000915054906101000a900473ffffffffffffffffffffffffffffffffffffffff1681565b60055481565b60008054906101000a900473ffffffffffffffffffffffffffffffffffffffff1673ffffffffffffffffffffffffffffffffffffffff163373ffffffffffffffffffffffffffffffffffffffff16146109a9576040517f08c379a00000000000000000000000000000000000000000000000000000000081526004016109a0906111ce565b60405180910390fd5b60005b60025481108015610a2757508173ffffffffffffffffffffffffffffffffffffffff16600182815481106109e3576109e2611536565b5b9060005260206000200160009054906101000a900473ffffffffffffffffffffffffffffffffffffffff1673ffffffffffffffffffffffffffffffffffffffff1614155b15610a3d5780610a369061149b565b90506109ac565b6002548103610ac2576001829080600181540180825580915050600190039060005260206000200160009091909190916101000a81548173ffffffffffffffffffffffffffffffffffffffff021916908373ffffffffffffffffffffffffffffffffffffffff16021790555060026000815480929190610abc9061149b565b91905055505b5050565b600080600090505b600180549050811015610b695760018181548110610aef57610aee611536565b5b9060005260206000200160009054906101000a900473ffffffffffffffffffffffffffffffffffffffff1673ffffffffffffffffffffffffffffffffffffffff168373ffffffffffffffffffffffffffffffffffffffff1603610b56576001915050610b6f565b8080610b619061149b565b915050610ace565b50600090505b919050565b600080600090505b6004600085815260200190815260200160002080549050811015610c3957600460008581526020019081526020016000208181548110610bbf57610bbe611536565b5b9060005260206000200160009054906101000a900473ffffffffffffffffffffffffffffffffffffffff1673ffffffffffffffffffffffffffffffffffffffff168373ffffffffffffffffffffffffffffffffffffffff1603610c26576001915050610c3f565b8080610c319061149b565b915050610b7c565b50600090505b92915050565b6000604051905090565b600080fd5b600080fd5b6000819050919050565b610c6c81610c59565b8114610c7757600080fd5b50565b600081359050610c8981610c63565b92915050565b600060208284031215610ca557610ca4610c4f565b5b6000610cb384828501610c7a565b91505092915050565b600073ffffffffffffffffffffffffffffffffffffffff82169050919050565b6000610ce782610cbc565b9050919050565b610cf781610cdc565b82525050565b600081519050919050565b600082825260208201905092915050565b60005b83811015610d37578082015181840152602081019050610d1c565b60008484015250505050565b6000601f19601f8301169050919050565b6000610d5f82610cfd565b610d698185610d08565b9350610d79818560208601610d19565b610d8281610d43565b840191505092915050565b610d9681610c59565b82525050565b600060c082019050610db16000830189610cee565b8181036020830152610dc38188610d54565b9050610dd26040830187610d8d565b610ddf6060830186610d8d565b8181036080830152610df18185610d54565b9050610e0060a0830184610d8d565b979650505050505050565b600080fd5b600080fd5b7f4e487b7100000000000000000000000000000000000000000000000000000000600052604160045260246000fd5b610e4d82610d43565b810181811067ffffffffffffffff82111715610e6c57610e6b610e15565b5b80604052505050565b6000610e7f610c45565b9050610e8b8282610e44565b919050565b600067ffffffffffffffff821115610eab57610eaa610e15565b5b610eb482610d43565b9050602081019050919050565b82818337600083830152505050565b6000610ee3610ede84610e90565b610e75565b905082815260208101848484011115610eff57610efe610e10565b5b610f0a848285610ec1565b509392505050565b600082601f830112610f2757610f26610e0b565b5b8135610f37848260208601610ed0565b91505092915050565b60008060408385031215610f5757610f56610c4f565b5b6000610f6585828601610c7a565b925050602083013567ffffffffffffffff811115610f8657610f85610c54565b5b610f9285828601610f12565b9150509250929050565b600060208284031215610fb257610fb1610c4f565b5b600082013567ffffffffffffffff811115610fd057610fcf610c54565b5b610fdc84828501610f12565b91505092915050565b6000602082019050610ffa6000830184610cee565b92915050565b60006020820190506110156000830184610d8d565b92915050565b6000806040838503121561103257611031610c4f565b5b600083013567ffffffffffffffff8111156110505761104f610c54565b5b61105c85828601610f12565b925050602083013567ffffffffffffffff81111561107d5761107c610c54565b5b61108985828601610f12565b9150509250929050565b60008115159050919050565b6110a881611093565b82525050565b60006020820190506110c3600083018461109f565b92915050565b6110d281610cdc565b81146110dd57600080fd5b50565b6000813590506110ef816110c9565b92915050565b60006020828403121561110b5761110a610c4f565b5b6000611119848285016110e0565b91505092915050565b7f4e487b7100000000000000000000000000000000000000000000000000000000600052602260045260246000fd5b6000600282049050600182168061116957607f821691505b60208210810361117c5761117b611122565b5b50919050565b7f4e6f74206f776e65720000000000000000000000000000000000000000000000600082015250565b60006111b8600983610d08565b91506111c382611182565b602082019050919050565b600060208201905081810360008301526111e7816111ab565b9050919050565b60008190508160005260206000209050919050565b60006020601f8301049050919050565b600082821b905092915050565b6000600883026112507fffffffffffffffffffffffffffffffffffffffffffffffffffffffffffffffff82611213565b61125a8683611213565b95508019841693508086168417925050509392505050565b6000819050919050565b600061129761129261128d84610c59565b611272565b610c59565b9050919050565b6000819050919050565b6112b18361127c565b6112c56112bd8261129e565b848454611220565b825550505050565b600090565b6112da6112cd565b6112e58184846112a8565b505050565b5b81811015611309576112fe6000826112d2565b6001810190506112eb565b5050565b601f82111561134e5761131f816111ee565b61132884611203565b81016020851015611337578190505b61134b61134385611203565b8301826112ea565b50505b505050565b600082821c905092915050565b600061137160001984600802611353565b1980831691505092915050565b600061138a8383611360565b9150826002028217905092915050565b6113a382610cfd565b67ffffffffffffffff8111156113bc576113bb610e15565b5b6113c68254611151565b6113d182828561130d565b600060209050601f83116001811461140457600084156113f2578287015190505b6113fc858261137e565b865550611464565b601f198416611412866111ee565b60005b8281101561143a57848901518255600182019150602085019450602081019050611415565b868310156114575784890151611453601f891682611360565b8355505b6001600288020188555050505b505050505050565b7f4e487b7100000000000000000000000000000000000000000000000000000000600052601160045260246000fd5b60006114a682610c59565b91507fffffffffffffffffffffffffffffffffffffffffffffffffffffffffffffffff82036114d8576114d761146c565b5b600182019050919050565b600081905092915050565b60006114f982610cfd565b61150381856114e3565b9350611513818560208601610d19565b80840191505092915050565b600061152b82846114ee565b915081905092915050565b7f4e487b7100000000000000000000000000000000000000000000000000000000600052603260045260246000fdfea26469706673582212200f03afbc9b583e09158fb1c05edcf48e6fdc9ab6da1d6c9552f39ce8eb2b599a64736f6c63430008130033",
  "immutableReferences": {},
  "source": "// SPDX-License-Identifier: MIT\r\npragma solidity ^0.8.19;\r\n\r\ncontract Voting {\r\n  address public owner;\r\n  address[] public voters;\r\n  uint public numberOfVoters;\r\n  struct Proposal{\r\n    address owner;\r\n    string message;\r\n    uint yesVotes;\r\n    uint noVotes;\r\n    string status;\r\n    uint proposalId;\r\n  }\r\n  mapping (uint => Proposal) public proposals;\r\n  mapping (uint => address[]) internal proposalVoters;\r\n  uint256 public proposalsId;\r\n\r\n  constructor() {\r\n    owner = msg.sender;\r\n  }\r\n\r\n  function addVoter(address voter) public onlyOwner{\r\n    uint i;\r\n    for(i=0; i<numberOfVoters && voters[i]!=voter; ++i){}\r\n    if(i==numberOfVoters){\r\n        voters.push(voter);\r\n        numberOfVoters++;\r\n    }\r\n  }\r\n\r\n  function checkVoters(address add) internal view returns (bool){\r\n    for(uint i =0; i<voters.length; i++){\r\n      if(add==voters[i])\r\n        return true;\r\n    }\r\n    return false;\r\n  }\r\n\r\n  function checkIfAlreadyVoted(uint256 id, address voter) internal view returns (bool){\r\n    for(uint i =0; i<proposalVoters[id].length; i++){\r\n      if(voter==proposalVoters[id][i])\r\n        return true;\r\n    }\r\n    return false;\r\n  }\r\n\r\n  function submitProposal(string memory message) public {\r\n    if(checkVoters(msg.sender)){\r\n      proposals[proposalsId].owner = msg.sender;\r\n      proposals[proposalsId].message = message;\r\n      proposals[proposalsId].status = 'open';\r\n      proposalsId++;\r\n      proposals[proposalsId].proposalId = proposalsId;\r\n    }\r\n  }\r\n\r\n  function compareStrings(string memory a, string memory b) public pure returns (bool) {\r\n    return (keccak256(abi.encodePacked((a))) == keccak256(abi.encodePacked((b))));\r\n}\r\n\r\n  function vote(uint256 id, string memory message) public{\r\n    if(checkVoters(msg.sender) && !checkIfAlreadyVoted(id, msg.sender) && compareStrings(proposals[id].status, \"open\")){\r\n      if(compareStrings(message, \"yes\")){\r\n        proposals[id].yesVotes++;\r\n        proposalVoters[id].push(msg.sender);\r\n      }\r\n      else if(compareStrings(message, \"no\")){\r\n        proposals[id].noVotes++;\r\n        proposalVoters[id].push(msg.sender);\r\n      }\r\n    }\r\n  }\r\n\r\n  function closeProposal(uint256 id) public onlyOwner{\r\n    proposals[id].status = 'closed';\r\n  }\r\n\r\n  modifier onlyOwner() {\r\n        require(msg.sender == owner, \"Not owner\");\r\n        _;\r\n  }\r\n}\r\n",
  "sourcePath": "C:\\Users\\Black Machine\\Projects\\votingDapp\\contracts\\Voting.sol",
  "compiler": {
    "name": "solc",
    "version": "0.8.19+commit.7dd6d404.Emscripten.clang"
  },
  "schemaVersion": "3.4.13",
  "updatedAt": "2023-03-23T13:49:40.531Z",
  "networkType": "ethereum",
  "devdoc": {
    "kind": "dev",
    "methods": {},
    "version": 1
  },
  "userdoc": {
    "kind": "user",
    "methods": {},
    "version": 1
  }
}